:100000000C9431010C944E010C94AC030C944E01F1
:100010000C9494030C944E010C944E010C944E01DC
:100020000C944E010C944E010C944E010C944E0114
:100030000C944E010C944E010C944E010C944E0104
:100040000C944E010C944E010C944E010C944E01F4
:100050000C944E010C944E010C944E010C944E01E4
:100060000C944E010C944E01FD0427050305270551
:10007000090527050F052705150527051B05270574
:100080002105000000000000005F000000070007DD
:1000900000147F147F14242A7F2A12231308646219
:1000A00036495522500005030000001C2241000083
:1000B00041221C0014083E081408083E080800509D
:1000C00030000008080808080060600000201008E0
:1000D00004023E5149453E00427F40004261514981
:1000E000462141454B311814127F102745454539AB
:1000F0003C4A4949300171090503364949493606E8
:100100004949291E00363600000056360000081402
:100110002241001414141414004122140802015145
:100120000906324979413E7E1111117E7F494949C4
:10013000363E414141227F4141221C7F494949418C
:100140007F090909013E4149497A7F0808087F0073
:10015000417F41002040413F017F081422417F4000
:100160004040407F020C027F7F0408107F3E4141E7
:10017000413E7F090909063E4151215E7F09192947
:1001800046464949493101017F01013F4040403F16
:100190001F2040201F3F4038403F6314081463076E
:1001A000087008076151494543007F41410002043E
:1001B0000810200041417F00040201020440404039
:1001C0004040000102040020545454787F484444C5
:1001D000383844444420384444487F3854545418F0
:1001E000087E0901020C5252523E7F080404780036
:1001F000447D40002040443D007F102844000041E1
:100200007F40007C041804787C0804047838444457
:1002100044387C14141408081414187C7C08040452
:10022000084854545420043F4440203C4040207C23
:100230001C2040201C3C4030403C44281028440CEA
:100240005050503C4464544C440008364100000077
:100250007F00000041360800100808100800000068
:10026000000011241FBECFEFD8E0DEBFCDBF11E0EC
:10027000A0E0B1E0E4E8FAE002C005900D92A430FD
:10028000B107D9F723E0A4E0B1E001C01D92A0308E
:10029000B207E1F70E9482040C9440050C94000020
:1002A0002998662311F02C9A15C02C9813C0AC0124
:1002B000022E02C0559547950A94E2F740FF02C00E
:1002C0002B9A01C02B982D9A2D982150310978F73F
:1002D000299A089527E030E090E0E9CF60E00E949D
:1002E000500108959DEC899F912D11249695969526
:1002F0009695392F330F232F220F220F230F821BA6
:1003000020E1929F800D11240895CF93DF93219ACD
:10031000209A249A239A259A289A299A8FE19EE472
:100320000197F1F700C0000028989FE725EB81E0D6
:10033000915020408040E1F700C00000289A2998A1
:1003400081E20E946E0183E10E946E0186E00E94BC
:100350006E0182EC0E946E0180E20E946E0189E0D3
:100360000E946E0180E80E946E0180E40E946E018E
:10037000C8EFD1E061E080E00E9450012197D1F701
:1003800088E00E946E018CE00E946E01DF91CF91A7
:100390000895262F26952695269590E034E5239FEF
:1003A000800D911D1124442379F0FC01EA5FFE4F7A
:1003B000677081E090E002C0880F991F6A95E2F7AC
:1003C0009081892B80830895FC01EA5FFE4F67705E
:1003D00081E090E002C0880F991F6A95E2F780954E
:1003E00090818923808308955F926F927F928F928C
:1003F0009F92AF92BF92CF92DF92EF92FF920F93B4
:100400001F93CF93DF93562E262F30E04901880C9F
:10041000991C880C991C820E931E181419040CF058
:100420005DC08901000F111F000F111F000F111F68
:10043000021B130B612CA82EB12CC50180975C0107
:10044000AA0CBB1CAA0CBB1CA80EB91E0F2EFFEFDA
:10045000CF2EF2E0DF2EF02D0F2EFEEFEF2EF2E08A
:10046000FF2EF02D2DC0FE01249130E0872D652D4B
:100470000E942E0502C0359527958A95E2F720FF48
:100480000AC0F6016081670DF701808141E0860DA9
:100490000E94C90109C0F6016081670DF7018081E2
:1004A00040E0860D0E94C9017394872D90E080176B
:1004B0009107CCF26394862D90E08815990574F429
:1004C00010161106BCF7862D652D0E942E05E5013C
:1004D000C80FD11DCE57DF4F712CC5CF8091FE02C2
:1004E00091E0980F852D880F880F850D890F843531
:1004F00018F48093FE020EC01092FE02EFEFF2E0BD
:10050000808191E0980F852D880F880F880F8519BD
:10051000890F80838091FF02803320F01092FE02C9
:100520001092FF02DF91CF911F910F91FF90EF90FA
:10053000DF90CF90BF90AF909F908F907F906F9003
:100540005F9008951F93CF93DF93EC0188818823F8
:1005500041F0162F2196612F0E94F401899181119B
:10056000FACFDF91CF911F9108950F931F93CF93EF
:10057000DF9380E80E946E0180E40E946E01C6E075
:10058000D1E00EEF12E061E089910E945001C017A6
:10059000D107C9F7DF91CF911F910F910895CF93A4
:1005A000DF93C82FD62F82958F70805D0E94F40153
:1005B0008C2F8F706D2F805D0E94F401DF91CF91A1
:1005C00008951092B90086E48093B80084E0809387
:1005D000BC00089584EA8093BC00ECEBF0E08081DD
:1005E0008823ECF7089584E98093BC0087EC90E0C1
:1005F0000197F1F700C0000008958093BB0084E8E4
:100600008093BC00ECEBF0E080818823ECF7089548
:1006100020E4829FC001112484688093BC00ECEB2D
:10062000F0E080818823ECF78091BB0008950E9460
:10063000E1020E94EA0280ED0E94FD0287E00E9432
:10064000FD0280E00E94FD020E94F3020895CF9314
:10065000DF93EC010E94EA0280ED0E94FD0280E03F
:100660000E94FD0288810E94FD0289810E94FD0294
:100670008A810E94FD028B810E94FD028C810E9472
:10068000FD028D810E94FD028E810E94FD020E946A
:10069000F302DF91CF910895CF93DF93EC010E9495
:1006A000EA0280ED0E94FD0280E00E94FD020E94AD
:1006B000F3020E94EA0281ED0E94FD0281E00E94A5
:1006C0000803888381E00E940803898381E00E94F7
:1006D00008038A8381E00E9408038B8381E00E94E3
:1006E00008038C8381E00E9408038D8380E00E94D0
:1006F00008038E830E94F302DF91CF910895E8E60C
:10070000F0E0808182608083ECE6F0E080818860A8
:10071000808308958AB1837F8AB9E9E6F0E0808119
:1007200088608083E99A08951F920F920FB60F9206
:1007300011248F93F894809105018F3018F0109256
:10074000050103C08F5F8093050178948F910F900E
:100750000FBE0F901F9018951F920F920FB60F9219
:1007600011242F938F939F93F89489B1982F9470AD
:1007700082FF5CC080910501853078F4909104017E
:10078000992321F091509093040107C09BE390932B
:100790000401863009F0A4C007C0863071F490913E
:1007A0000401992331F001C09BE39150909304011F
:1007B00012C097E1909304011CC0883061F49091BD
:1007C0000401923020F091509093040120C09FE1E9
:1007D000909304011CC08A3061F48091040182303E
:1007E00020F081508093040176C08CE08093040156
:1007F00072C08C3061F480910401882321F0815013
:100800008093040168C083E68093040164C08E3045
:1008100009F061C080910401823020F08150809302
:10082000040159C087E08093040155C080910501FF
:10083000853070F4209104012B3320F42F5F209336
:10084000040106C010920401863009F050C006C0B1
:10085000863059F490910401973120F49F5F909372
:10086000040111C0109204011CC0883061F4909101
:1008700004019F3120F49F5F909304011FC091E019
:10088000909304011BC08A3061F4809104018C3084
:1008900020F48F5F809304011EC081E080930401E7
:1008A0001AC08C3059F480910401833620F48F5F94
:1008B0008093040110C0109204010DC08E3059F4D1
:1008C00080910401873020F48F5F8093040103C07E
:1008D00081E08093040178940DC09091040173CF5E
:1008E000883009F078CFF9CF90910401C4CF8830D7
:1008F00051F6FACF9F918F912F910F900FBE0F90CD
:100900001F901895CF93DF93CDB7DEB727970FB61B
:10091000F894DEBF0FBECDBF0E9485010E94170371
:100920000E947F030E948A0378940F2EFEEFCF2E41
:10093000F2E0DF2EF02D1AE00F2EFFEFEF2EF2E0A7
:10094000FF2EF02D0F2EF4E1BF2EF02D0EE1CE0183
:1009500001960E944C03F6011083F701108361E0B9
:100960008D810E94CF0261E08AE30E94F40161E080
:100970008E810E94CF0261E08AE30E94F40161E06F
:1009800080E091E00E94A20261E08F810E94CF028C
:10099000F6011083F701B08261E08B810E94CF02E3
:1009A00061E080E20E94F40161E08A810E94CF024E
:1009B00061E080E20E94F40161E089810E94CF023F
:1009C000F6011083F7010083809105010E947201F6
:1009D00061E00E94CF020E94B502E0910501EE2382
:1009E00009F4B5CF8E2F90E0FC013297ED30F10580
:1009F00070F5EC5CFF4F0C943A05809104010E9465
:100A00007201898326C0809104010E9472018A8349
:100A100020C0809104010E9472018B831AC08091D2
:100A200004010E9472018D8314C0809104010E9410
:100A300072018E830EC0809104010E9472018F8327
:100A400008C0809104010E9472018C8302C0109240
:100A50000401CE0101960E94270379CF991B79E00A
:100A600004C0991F961708F0961B881F7A95C9F73E
:100A700080950895EE0FFF1F0590F491E02D0994E5
:040A8000F894FFCF18
:040A8400323000000C
:00000001FF
